{
  "abi": [
    {
      "inputs": [],
      "stateMutability": "nonpayable",
      "type": "constructor"
    },
    {
      "anonymous": false,
      "inputs": [
        {
          "indexed": true,
          "internalType": "address",
          "name": "sender",
          "type": "address"
        },
        {
          "indexed": false,
          "internalType": "uint256",
          "name": "amount",
          "type": "uint256"
        },
        {
          "indexed": false,
          "internalType": "uint256",
          "name": "id",
          "type": "uint256"
        }
      ],
      "name": "NftAuctionCreated",
      "type": "event"
    },
    {
      "inputs": [
        {
          "internalType": "address",
          "name": "_nft",
          "type": "address"
        },
        {
          "internalType": "address",
          "name": "_paymentReceiver",
          "type": "address"
        },
        {
          "internalType": "uint256[]",
          "name": "_nftIds",
          "type": "uint256[]"
        },
        {
          "internalType": "uint256[]",
          "name": "_startingBids",
          "type": "uint256[]"
        }
      ],
      "name": "createNFTAuction",
      "outputs": [
        {
          "internalType": "address",
          "name": "",
          "type": "address"
        }
      ],
      "stateMutability": "nonpayable",
      "type": "function"
    },
    {
      "inputs": [],
      "name": "owner",
      "outputs": [
        {
          "internalType": "address",
          "name": "",
          "type": "address"
        }
      ],
      "stateMutability": "view",
      "type": "function"
    }
  ],
  "bytecode": {
    "object": "0x608060405234801561001057600080fd5b50600080546001600160a01b03191633179055610e2b806100326000396000f3fe608060405234801561001057600080fd5b50600436106100365760003560e01c80638da5cb5b1461003b578063d5777e051461006a575b600080fd5b60005461004e906001600160a01b031681565b6040516001600160a01b03909116815260200160405180910390f35b61004e6100783660046101c6565b600080546001600160a01b0316331461009057600080fd5b60008060009054906101000a90046001600160a01b0316868686866040516100b7906100ec565b6100c5959493929190610286565b604051809103906000f0801580156100e1573d6000803e3d6000fd5b509695505050505050565b610b1d806102d983390190565b80356001600160a01b038116811461011057600080fd5b919050565b634e487b7160e01b600052604160045260246000fd5b600082601f83011261013c57600080fd5b8135602067ffffffffffffffff8083111561015957610159610115565b8260051b604051601f19603f8301168101818110848211171561017e5761017e610115565b60405293845285810183019383810192508785111561019c57600080fd5b83870191505b848210156101bb578135835291830191908301906101a2565b979650505050505050565b600080600080608085870312156101dc57600080fd5b6101e5856100f9565b93506101f3602086016100f9565b9250604085013567ffffffffffffffff8082111561021057600080fd5b61021c8883890161012b565b9350606087013591508082111561023257600080fd5b5061023f8782880161012b565b91505092959194509250565b600081518084526020808501945080840160005b8381101561027b5781518752958201959082019060010161025f565b509495945050505050565b6001600160a01b03868116825285811660208301528416604082015260a0606082018190526000906102ba9083018561024b565b82810360808401526102cc818561024b565b9897505050505050505056fe60806040523480156200001157600080fd5b5060405162000b1d38038062000b1d8339810160408190526200003491620001e6565b600180546001600160a01b038088166001600160a01b031992831617909255600080548784169083161790556002805492861692909116919091179055815162000086906003906020850190620000a8565b5080516200009c906004906020840190620000a8565b50505050505062000289565b828054828255906000526020600020908101928215620000e6579160200282015b82811115620000e6578251825591602001919060010190620000c9565b50620000f4929150620000f8565b5090565b5b80821115620000f45760008155600101620000f9565b80516001600160a01b03811681146200012757600080fd5b919050565b634e487b7160e01b600052604160045260246000fd5b600082601f8301126200015457600080fd5b815160206001600160401b03808311156200017357620001736200012c565b8260051b604051601f19603f830116810181811084821117156200019b576200019b6200012c565b604052938452858101830193838101925087851115620001ba57600080fd5b83870191505b84821015620001db57815183529183019190830190620001c0565b979650505050505050565b600080600080600060a08688031215620001ff57600080fd5b6200020a866200010f565b94506200021a602087016200010f565b93506200022a604087016200010f565b60608701519093506001600160401b03808211156200024857600080fd5b6200025689838a0162000142565b935060808801519150808211156200026d57600080fd5b506200027c8882890162000142565b9150509295509295909350565b61088480620002996000396000f3fe6080604052600436106100a75760003560e01c8063454a2ab311610064578063454a2ab3146101ec57806347ccca02146101ff5780638da5cb5b14610237578063be9a655514610257578063cb37f3b21461026c578063efbe1c1c1461028c57600080fd5b806312fa6feb146100ac578063150b7a02146100e25780631f2698ab146101265780633197cbb614610147578063379607f51461016b5780634423c5f11461018d575b600080fd5b3480156100b857600080fd5b506001546100cd90600160a81b900460ff1681565b60405190151581526020015b60405180910390f35b3480156100ee57600080fd5b5061010d6100fd3660046106d7565b630a85bd0160e11b949350505050565b6040516001600160e01b031990911681526020016100d9565b34801561013257600080fd5b506001546100cd90600160a01b900460ff1681565b34801561015357600080fd5b5061015d60055481565b6040519081526020016100d9565b34801561017757600080fd5b5061018b6101863660046107b7565b6102a1565b005b34801561019957600080fd5b506101cd6101a83660046107b7565b600660205260009081526040902080546001909101546001600160a01b039091169082565b604080516001600160a01b0390931683526020830191909152016100d9565b61018b6101fa3660046107b7565b610350565b34801561020b57600080fd5b5060005461021f906001600160a01b031681565b6040516001600160a01b0390911681526020016100d9565b34801561024357600080fd5b5060015461021f906001600160a01b031681565b34801561026357600080fd5b5061018b610534565b34801561027857600080fd5b5060025461021f906001600160a01b031681565b34801561029857600080fd5b5061018b6105c5565b600154600160a81b900460ff166102d35760405162461bcd60e51b81526004016102ca906107d0565b60405180910390fd5b600080548282526006602052604091829020549151632142170760e11b81523060048201526001600160a01b039283166024820152604481018490529116906342842e0e90606401600060405180830381600087803b15801561033557600080fd5b505af1158015610349573d6000803e3d6000fd5b5050505050565b600154600160a01b900460ff166103915760405162461bcd60e51b81526020600482015260056024820152640854d5149560da1b60448201526064016102ca565b60055442106103b25760405162461bcd60e51b81526004016102ca906107d0565b60008181526006602052604090206001015434116103cf57600080fd5b6000546040516331a9108f60e11b81526004810183905230916001600160a01b031690636352211e90602401602060405180830381865afa158015610418573d6000803e3d6000fd5b505050506040513d601f19601f8201168201806040525081019061043c91906107ed565b6001600160a01b03161461044f57600080fd5b6000818152600660205260408120600101549003610490576004818154811061047a5761047a610811565b9060005260206000200154341161049057600080fd5b60008181526006602052604080822060018101805482546001600160a01b03198116331790935534909155915191926001600160a01b0390911691829184156108fc02918591818181858888f193505050501580156104f3573d6000803e3d6000fd5b50604080513481526020810185905233917f19421268847f42dd61705778018ddfc43bcdce8517e7a630acb12f122c709481910160405180910390a2505050565b600154600160a01b900460ff16156105775760405162461bcd60e51b815260206004820152600660248201526514d51495115160d21b60448201526064016102ca565b6001805460ff60a01b1916600160a01b1790556105974262015180610827565b6005556040517f1b55ba3aa851a46be3b365aee5b5c140edd620d578922f3e8466d2cbd96f954b90600090a1565b600154600160a01b900460ff166106065760405162461bcd60e51b81526020600482015260056024820152640854d5149560da1b60448201526064016102ca565b6005544210156106415760405162461bcd60e51b81526004016102ca906020808252600490820152630851539160e21b604082015260600190565b600154600160a81b900460ff161561066b5760405162461bcd60e51b81526004016102ca906107d0565b6001805460ff60a81b1916600160a81b1790556040517f06e649079f276fcfc97b1e5cbfbb65937dac6a51ee164e3190e707e27ff345fa90600090a1565b6001600160a01b03811681146106be57600080fd5b50565b634e487b7160e01b600052604160045260246000fd5b600080600080608085870312156106ed57600080fd5b84356106f8816106a9565b93506020850135610708816106a9565b925060408501359150606085013567ffffffffffffffff8082111561072c57600080fd5b818701915087601f83011261074057600080fd5b813581811115610752576107526106c1565b604051601f8201601f19908116603f0116810190838211818310171561077a5761077a6106c1565b816040528281528a602084870101111561079357600080fd5b82602086016020830137600060208483010152809550505050505092959194509250565b6000602082840312156107c957600080fd5b5035919050565b60208082526003908201526211539160ea1b604082015260600190565b6000602082840312156107ff57600080fd5b815161080a816106a9565b9392505050565b634e487b7160e01b600052603260045260246000fd5b8082018082111561084857634e487b7160e01b600052601160045260246000fd5b9291505056fea2646970667358221220c05f236a3e0b979a763b0498237bbc450962c1b1ce97ecfbb88abd32e7d52eb764736f6c63430008110033a26469706673582212209abd53d5e85d18afa3dae8b366655554803eb66efc7430c73ffadff39901e96264736f6c63430008110033",
    "linkReferences": {}
  },
  "methodIdentifiers": {
    "createNFTAuction(address,address,uint256[],uint256[])": "d5777e05",
    "owner()": "8da5cb5b"
  },
  "id": 26
}