{
  "abi": [
    {
      "inputs": [
        {
          "internalType": "address",
          "name": "_owner",
          "type": "address"
        },
        {
          "internalType": "address",
          "name": "_nft",
          "type": "address"
        },
        {
          "internalType": "address",
          "name": "_paymentReceiver",
          "type": "address"
        },
        {
          "internalType": "uint256[]",
          "name": "_nftIds",
          "type": "uint256[]"
        },
        {
          "internalType": "uint256[]",
          "name": "_startingBids",
          "type": "uint256[]"
        }
      ],
      "stateMutability": "nonpayable",
      "type": "constructor"
    },
    {
      "anonymous": false,
      "inputs": [
        {
          "indexed": true,
          "internalType": "address",
          "name": "sender",
          "type": "address"
        },
        {
          "indexed": false,
          "internalType": "uint256",
          "name": "amount",
          "type": "uint256"
        },
        {
          "indexed": false,
          "internalType": "uint256",
          "name": "id",
          "type": "uint256"
        }
      ],
      "name": "Bid",
      "type": "event"
    },
    {
      "anonymous": false,
      "inputs": [],
      "name": "End",
      "type": "event"
    },
    {
      "anonymous": false,
      "inputs": [],
      "name": "Start",
      "type": "event"
    },
    {
      "inputs": [
        {
          "internalType": "uint256",
          "name": "Id",
          "type": "uint256"
        }
      ],
      "name": "bid",
      "outputs": [],
      "stateMutability": "payable",
      "type": "function"
    },
    {
      "inputs": [
        {
          "internalType": "uint256",
          "name": "",
          "type": "uint256"
        }
      ],
      "name": "bids",
      "outputs": [
        {
          "internalType": "address",
          "name": "highestBidder",
          "type": "address"
        },
        {
          "internalType": "uint256",
          "name": "highestBid",
          "type": "uint256"
        }
      ],
      "stateMutability": "view",
      "type": "function"
    },
    {
      "inputs": [
        {
          "internalType": "uint256",
          "name": "Id",
          "type": "uint256"
        }
      ],
      "name": "claim",
      "outputs": [],
      "stateMutability": "nonpayable",
      "type": "function"
    },
    {
      "inputs": [],
      "name": "end",
      "outputs": [],
      "stateMutability": "nonpayable",
      "type": "function"
    },
    {
      "inputs": [],
      "name": "endTime",
      "outputs": [
        {
          "internalType": "uint256",
          "name": "",
          "type": "uint256"
        }
      ],
      "stateMutability": "view",
      "type": "function"
    },
    {
      "inputs": [],
      "name": "ended",
      "outputs": [
        {
          "internalType": "bool",
          "name": "",
          "type": "bool"
        }
      ],
      "stateMutability": "view",
      "type": "function"
    },
    {
      "inputs": [],
      "name": "nft",
      "outputs": [
        {
          "internalType": "contract IERC721",
          "name": "",
          "type": "address"
        }
      ],
      "stateMutability": "view",
      "type": "function"
    },
    {
      "inputs": [
        {
          "internalType": "address",
          "name": "",
          "type": "address"
        },
        {
          "internalType": "address",
          "name": "",
          "type": "address"
        },
        {
          "internalType": "uint256",
          "name": "",
          "type": "uint256"
        },
        {
          "internalType": "bytes",
          "name": "",
          "type": "bytes"
        }
      ],
      "name": "onERC721Received",
      "outputs": [
        {
          "internalType": "bytes4",
          "name": "",
          "type": "bytes4"
        }
      ],
      "stateMutability": "nonpayable",
      "type": "function"
    },
    {
      "inputs": [],
      "name": "owner",
      "outputs": [
        {
          "internalType": "address",
          "name": "",
          "type": "address"
        }
      ],
      "stateMutability": "view",
      "type": "function"
    },
    {
      "inputs": [],
      "name": "paymentReceiver",
      "outputs": [
        {
          "internalType": "address payable",
          "name": "",
          "type": "address"
        }
      ],
      "stateMutability": "view",
      "type": "function"
    },
    {
      "inputs": [],
      "name": "start",
      "outputs": [],
      "stateMutability": "nonpayable",
      "type": "function"
    },
    {
      "inputs": [],
      "name": "started",
      "outputs": [
        {
          "internalType": "bool",
          "name": "",
          "type": "bool"
        }
      ],
      "stateMutability": "view",
      "type": "function"
    }
  ],
  "bytecode": {
    "object": "0x60806040523480156200001157600080fd5b5060405162000ac438038062000ac48339810160408190526200003491620001e6565b600180546001600160a01b038088166001600160a01b031992831617909255600080548784169083161790556002805492861692909116919091179055815162000086906003906020850190620000a8565b5080516200009c906004906020840190620000a8565b50505050505062000289565b828054828255906000526020600020908101928215620000e6579160200282015b82811115620000e6578251825591602001919060010190620000c9565b50620000f4929150620000f8565b5090565b5b80821115620000f45760008155600101620000f9565b80516001600160a01b03811681146200012757600080fd5b919050565b634e487b7160e01b600052604160045260246000fd5b600082601f8301126200015457600080fd5b815160206001600160401b03808311156200017357620001736200012c565b8260051b604051601f19603f830116810181811084821117156200019b576200019b6200012c565b604052938452858101830193838101925087851115620001ba57600080fd5b83870191505b84821015620001db57815183529183019190830190620001c0565b979650505050505050565b600080600080600060a08688031215620001ff57600080fd5b6200020a866200010f565b94506200021a602087016200010f565b93506200022a604087016200010f565b60608701519093506001600160401b03808211156200024857600080fd5b6200025689838a0162000142565b935060808801519150808211156200026d57600080fd5b506200027c8882890162000142565b9150509295509295909350565b61082b80620002996000396000f3fe6080604052600436106100a75760003560e01c8063454a2ab311610064578063454a2ab3146101ec57806347ccca02146101ff5780638da5cb5b14610237578063be9a655514610257578063cb37f3b21461026c578063efbe1c1c1461028c57600080fd5b806312fa6feb146100ac578063150b7a02146100e25780631f2698ab146101265780633197cbb614610147578063379607f51461016b5780634423c5f11461018d575b600080fd5b3480156100b857600080fd5b506001546100cd90600160a81b900460ff1681565b60405190151581526020015b60405180910390f35b3480156100ee57600080fd5b5061010d6100fd36600461069b565b630a85bd0160e11b949350505050565b6040516001600160e01b031990911681526020016100d9565b34801561013257600080fd5b506001546100cd90600160a01b900460ff1681565b34801561015357600080fd5b5061015d60055481565b6040519081526020016100d9565b34801561017757600080fd5b5061018b61018636600461077b565b6102a1565b005b34801561019957600080fd5b506101cd6101a836600461077b565b600660205260009081526040902080546001909101546001600160a01b039091169082565b604080516001600160a01b0390931683526020830191909152016100d9565b61018b6101fa36600461077b565b61031e565b34801561020b57600080fd5b5060005461021f906001600160a01b031681565b6040516001600160a01b0390911681526020016100d9565b34801561024357600080fd5b5060015461021f906001600160a01b031681565b34801561026357600080fd5b5061018b6104e2565b34801561027857600080fd5b5060025461021f906001600160a01b031681565b34801561029857600080fd5b5061018b610573565b600080548282526006602052604091829020549151632142170760e11b81523060048201526001600160a01b039283166024820152604481018490529116906342842e0e90606401600060405180830381600087803b15801561030357600080fd5b505af1158015610317573d6000803e3d6000fd5b5050505050565b600154600160a01b900460ff166103645760405162461bcd60e51b81526020600482015260056024820152640854d5149560da1b60448201526064015b60405180910390fd5b600554421061039b5760405162461bcd60e51b815260206004820152600360248201526211539160ea1b604482015260640161035b565b60008181526006602052604090206001015434116103b857600080fd5b6000546040516331a9108f60e11b81526004810183905230916001600160a01b031690636352211e90602401602060405180830381865afa158015610401573d6000803e3d6000fd5b505050506040513d601f19601f820116820180604052508101906104259190610794565b6001600160a01b03161461043857600080fd5b60008181526006602052604081206001015490036104795760048181548110610463576104636107b8565b9060005260206000200154341161047957600080fd5b60008181526006602052604080822060018101805482546001600160a01b03198116331790935534909155915191926001600160a01b0390911691829184156108fc02918591818181858888f193505050501580156104dc573d6000803e3d6000fd5b50505050565b600154600160a01b900460ff16156105255760405162461bcd60e51b815260206004820152600660248201526514d51495115160d21b604482015260640161035b565b6001805460ff60a01b1916600160a01b17905561054542620151806107ce565b6005556040517f1b55ba3aa851a46be3b365aee5b5c140edd620d578922f3e8466d2cbd96f954b90600090a1565b600154600160a01b900460ff166105b45760405162461bcd60e51b81526020600482015260056024820152640854d5149560da1b604482015260640161035b565b6005544210156105ef5760405162461bcd60e51b815260040161035b906020808252600490820152630851539160e21b604082015260600190565b600154600160a81b900460ff161561062f5760405162461bcd60e51b815260206004820152600360248201526211539160ea1b604482015260640161035b565b6001805460ff60a81b1916600160a81b1790556040517f06e649079f276fcfc97b1e5cbfbb65937dac6a51ee164e3190e707e27ff345fa90600090a1565b6001600160a01b038116811461068257600080fd5b50565b634e487b7160e01b600052604160045260246000fd5b600080600080608085870312156106b157600080fd5b84356106bc8161066d565b935060208501356106cc8161066d565b925060408501359150606085013567ffffffffffffffff808211156106f057600080fd5b818701915087601f83011261070457600080fd5b81358181111561071657610716610685565b604051601f8201601f19908116603f0116810190838211818310171561073e5761073e610685565b816040528281528a602084870101111561075757600080fd5b82602086016020830137600060208483010152809550505050505092959194509250565b60006020828403121561078d57600080fd5b5035919050565b6000602082840312156107a657600080fd5b81516107b18161066d565b9392505050565b634e487b7160e01b600052603260045260246000fd5b808201808211156107ef57634e487b7160e01b600052601160045260246000fd5b9291505056fea2646970667358221220679f047a98413778e2d32a4920b1f37f1224876ec6c69e453862591d65b5f52b64736f6c63430008110033",
    "linkReferences": {}
  },
  "methodIdentifiers": {
    "bid(uint256)": "454a2ab3",
    "bids(uint256)": "4423c5f1",
    "claim(uint256)": "379607f5",
    "end()": "efbe1c1c",
    "endTime()": "3197cbb6",
    "ended()": "12fa6feb",
    "nft()": "47ccca02",
    "onERC721Received(address,address,uint256,bytes)": "150b7a02",
    "owner()": "8da5cb5b",
    "paymentReceiver()": "cb37f3b2",
    "start()": "be9a6555",
    "started()": "1f2698ab"
  },
  "id": 27
}